{
  "_format": "hh-sol-artifact-1",
  "contractName": "SignContract",
  "sourceName": "contracts/SignContract.sol",
  "abi": [
    {
      "inputs": [
        {
          "internalType": "uint256",
          "name": "_contractId",
          "type": "uint256"
        }
      ],
      "name": "retrieve",
      "outputs": [
        {
          "internalType": "string",
          "name": "",
          "type": "string"
        },
        {
          "internalType": "string",
          "name": "",
          "type": "string"
        },
        {
          "internalType": "uint256",
          "name": "",
          "type": "uint256"
        },
        {
          "internalType": "string",
          "name": "",
          "type": "string"
        },
        {
          "internalType": "string",
          "name": "",
          "type": "string"
        },
        {
          "internalType": "bool",
          "name": "",
          "type": "bool"
        }
      ],
      "stateMutability": "view",
      "type": "function"
    },
    {
      "inputs": [
        {
          "internalType": "uint256",
          "name": "_contractId",
          "type": "uint256"
        },
        {
          "internalType": "string",
          "name": "_contractorName",
          "type": "string"
        },
        {
          "internalType": "string",
          "name": "_unsignPdfhash",
          "type": "string"
        }
      ],
      "name": "storeContract",
      "outputs": [],
      "stateMutability": "nonpayable",
      "type": "function"
    },
    {
      "inputs": [
        {
          "internalType": "uint256",
          "name": "_contractId",
          "type": "uint256"
        },
        {
          "internalType": "string",
          "name": "_singerName",
          "type": "string"
        },
        {
          "internalType": "string",
          "name": "_signPdfHash",
          "type": "string"
        }
      ],
      "name": "storeSignedContract",
      "outputs": [],
      "stateMutability": "nonpayable",
      "type": "function"
    }
  ],
  "bytecode": "0x608060405234801561001057600080fd5b50610de9806100206000396000f3fe608060405234801561001057600080fd5b50600436106100415760003560e01c80634ef3f9c9146100465780638f88708b1461006257806398001a5514610097575b600080fd5b610060600480360381019061005b91906107b3565b6100b3565b005b61007c6004803603810190610077919061083e565b6101ec565b60405161008e96959493929190610914565b60405180910390f35b6100b160048036038101906100ac91906107b3565b61051f565b005b82600080858152602001908152602001600020600201541461010a576040517f08c379a0000000000000000000000000000000000000000000000000000000008152600401610101906109dd565b60405180910390fd5b6001151560008085815260200190815260200160002060060160009054906101000a900460ff16151503610173576040517f08c379a000000000000000000000000000000000000000000000000000000000815260040161016a90610a49565b60405180910390fd5b8160008085815260200190815260200160002060040190816101959190610c75565b50600160008085815260200190815260200160002060060160006101000a81548160ff0219169083151502179055508060008085815260200190815260200160002060050190816101e69190610c75565b50505050565b6060806000606080600086600080898152602001908152602001600020600201541461024d576040517f08c379a0000000000000000000000000000000000000000000000000000000008152600401610244906109dd565b60405180910390fd5b6000808881526020019081526020016000206000016000808981526020019081526020016000206001016000808a8152602001908152602001600020600301546000808b81526020019081526020016000206004016000808c81526020019081526020016000206005016000808d815260200190815260200160002060060160009054906101000a900460ff168580546102e690610a98565b80601f016020809104026020016040519081016040528092919081815260200182805461031290610a98565b801561035f5780601f106103345761010080835404028352916020019161035f565b820191906000526020600020905b81548152906001019060200180831161034257829003601f168201915b5050505050955084805461037290610a98565b80601f016020809104026020016040519081016040528092919081815260200182805461039e90610a98565b80156103eb5780601f106103c0576101008083540402835291602001916103eb565b820191906000526020600020905b8154815290600101906020018083116103ce57829003601f168201915b505050505094508280546103fe90610a98565b80601f016020809104026020016040519081016040528092919081815260200182805461042a90610a98565b80156104775780601f1061044c57610100808354040283529160200191610477565b820191906000526020600020905b81548152906001019060200180831161045a57829003601f168201915b5050505050925081805461048a90610a98565b80601f01602080910402602001604051908101604052809291908181526020018280546104b690610a98565b80156105035780601f106104d857610100808354040283529160200191610503565b820191906000526020600020905b8154815290600101906020018083116104e657829003601f168201915b5050505050915095509550955095509550955091939550919395565b826000808581526020019081526020016000206002015403610576576040517f08c379a000000000000000000000000000000000000000000000000000000000815260040161056d90610d93565b60405180910390fd5b8060008085815260200190815260200160002060000190816105989190610c75565b50826000808581526020019081526020016000206002018190555042600080858152602001908152602001600020600301819055508160008085815260200190815260200160002060010190816105ef9190610c75565b50600080600085815260200190815260200160002060060160006101000a81548160ff021916908315150217905550505050565b6000604051905090565b600080fd5b600080fd5b6000819050919050565b61064a81610637565b811461065557600080fd5b50565b60008135905061066781610641565b92915050565b600080fd5b600080fd5b6000601f19601f8301169050919050565b7f4e487b7100000000000000000000000000000000000000000000000000000000600052604160045260246000fd5b6106c082610677565b810181811067ffffffffffffffff821117156106df576106de610688565b5b80604052505050565b60006106f2610623565b90506106fe82826106b7565b919050565b600067ffffffffffffffff82111561071e5761071d610688565b5b61072782610677565b9050602081019050919050565b82818337600083830152505050565b600061075661075184610703565b6106e8565b90508281526020810184848401111561077257610771610672565b5b61077d848285610734565b509392505050565b600082601f83011261079a5761079961066d565b5b81356107aa848260208601610743565b91505092915050565b6000806000606084860312156107cc576107cb61062d565b5b60006107da86828701610658565b935050602084013567ffffffffffffffff8111156107fb576107fa610632565b5b61080786828701610785565b925050604084013567ffffffffffffffff81111561082857610827610632565b5b61083486828701610785565b9150509250925092565b6000602082840312156108545761085361062d565b5b600061086284828501610658565b91505092915050565b600081519050919050565b600082825260208201905092915050565b60005b838110156108a557808201518184015260208101905061088a565b60008484015250505050565b60006108bc8261086b565b6108c68185610876565b93506108d6818560208601610887565b6108df81610677565b840191505092915050565b6108f381610637565b82525050565b60008115159050919050565b61090e816108f9565b82525050565b600060c082019050818103600083015261092e81896108b1565b9050818103602083015261094281886108b1565b905061095160408301876108ea565b818103606083015261096381866108b1565b9050818103608083015261097781856108b1565b905061098660a0830184610905565b979650505050505050565b7f726567436f6e74726163742069736e2774206578697374000000000000000000600082015250565b60006109c7601783610876565b91506109d282610991565b602082019050919050565b600060208201905081810360008301526109f6816109ba565b9050919050565b7f726567436f6e747261637420697320416c7265616479205369676e0000000000600082015250565b6000610a33601b83610876565b9150610a3e826109fd565b602082019050919050565b60006020820190508181036000830152610a6281610a26565b9050919050565b7f4e487b7100000000000000000000000000000000000000000000000000000000600052602260045260246000fd5b60006002820490506001821680610ab057607f821691505b602082108103610ac357610ac2610a69565b5b50919050565b60008190508160005260206000209050919050565b60006020601f8301049050919050565b600082821b905092915050565b600060088302610b2b7fffffffffffffffffffffffffffffffffffffffffffffffffffffffffffffffff82610aee565b610b358683610aee565b95508019841693508086168417925050509392505050565b6000819050919050565b6000610b72610b6d610b6884610637565b610b4d565b610637565b9050919050565b6000819050919050565b610b8c83610b57565b610ba0610b9882610b79565b848454610afb565b825550505050565b600090565b610bb5610ba8565b610bc0818484610b83565b505050565b5b81811015610be457610bd9600082610bad565b600181019050610bc6565b5050565b601f821115610c2957610bfa81610ac9565b610c0384610ade565b81016020851015610c12578190505b610c26610c1e85610ade565b830182610bc5565b50505b505050565b600082821c905092915050565b6000610c4c60001984600802610c2e565b1980831691505092915050565b6000610c658383610c3b565b9150826002028217905092915050565b610c7e8261086b565b67ffffffffffffffff811115610c9757610c96610688565b5b610ca18254610a98565b610cac828285610be8565b600060209050601f831160018114610cdf5760008415610ccd578287015190505b610cd78582610c59565b865550610d3f565b601f198416610ced86610ac9565b60005b82811015610d1557848901518255600182019150602085019450602081019050610cf0565b86831015610d325784890151610d2e601f891682610c3b565b8355505b6001600288020188555050505b505050505050565b7f436f6e747261637420496420697320416c726561647920457869737400000000600082015250565b6000610d7d601c83610876565b9150610d8882610d47565b602082019050919050565b60006020820190508181036000830152610dac81610d70565b905091905056fea2646970667358221220617c34128f8bca5f3c7f167432b27c92eafdcf9bbaa341220000c3ab86695ab364736f6c63430008110033",
  "linkReferences": {},
  "deployedLinkReferences": {}
}